{
  "_format": "hh-sol-artifact-1",
  "contractName": "ESGChainWithNFT",
  "sourceName": "contracts/ESGChainWithNFT.sol",
  "abi": [
    {
      "anonymous": false,
      "inputs": [
        {
          "indexed": true,
          "internalType": "uint256",
          "name": "certificateId",
          "type": "uint256"
        },
        {
          "indexed": true,
          "internalType": "address",
          "name": "owner",
          "type": "address"
        },
        {
          "indexed": false,
          "internalType": "string",
          "name": "companyName",
          "type": "string"
        },
        {
          "indexed": false,
          "internalType": "string",
          "name": "achievementLevel",
          "type": "string"
        },
        {
          "indexed": false,
          "internalType": "uint256",
          "name": "totalEmissions",
          "type": "uint256"
        },
        {
          "indexed": false,
          "internalType": "uint256",
          "name": "recordCount",
          "type": "uint256"
        }
      ],
      "name": "CertificateMinted",
      "type": "event"
    },
    {
      "anonymous": false,
      "inputs": [
        {
          "indexed": true,
          "internalType": "bytes32",
          "name": "recordHash",
          "type": "bytes32"
        },
        {
          "indexed": false,
          "internalType": "string",
          "name": "companyName",
          "type": "string"
        },
        {
          "indexed": false,
          "internalType": "string",
          "name": "batchId",
          "type": "string"
        },
        {
          "indexed": false,
          "internalType": "uint256",
          "name": "emissions",
          "type": "uint256"
        },
        {
          "indexed": false,
          "internalType": "string",
          "name": "energySource",
          "type": "string"
        },
        {
          "indexed": false,
          "internalType": "uint256",
          "name": "timestamp",
          "type": "uint256"
        },
        {
          "indexed": false,
          "internalType": "address",
          "name": "submitter",
          "type": "address"
        }
      ],
      "name": "ESGDataSubmitted",
      "type": "event"
    },
    {
      "inputs": [],
      "name": "certificateCounter",
      "outputs": [
        {
          "internalType": "uint256",
          "name": "",
          "type": "uint256"
        }
      ],
      "stateMutability": "view",
      "type": "function"
    },
    {
      "inputs": [
        {
          "internalType": "uint256",
          "name": "",
          "type": "uint256"
        }
      ],
      "name": "certificates",
      "outputs": [
        {
          "internalType": "uint256",
          "name": "id",
          "type": "uint256"
        },
        {
          "internalType": "bytes32",
          "name": "recordHash",
          "type": "bytes32"
        },
        {
          "internalType": "string",
          "name": "companyName",
          "type": "string"
        },
        {
          "internalType": "uint256",
          "name": "totalEmissions",
          "type": "uint256"
        },
        {
          "internalType": "uint256",
          "name": "recordCount",
          "type": "uint256"
        },
        {
          "internalType": "uint256",
          "name": "mintedAt",
          "type": "uint256"
        },
        {
          "internalType": "address",
          "name": "owner",
          "type": "address"
        },
        {
          "internalType": "string",
          "name": "achievementLevel",
          "type": "string"
        }
      ],
      "stateMutability": "view",
      "type": "function"
    },
    {
      "inputs": [
        {
          "internalType": "address",
          "name": "",
          "type": "address"
        },
        {
          "internalType": "uint256",
          "name": "",
          "type": "uint256"
        }
      ],
      "name": "companyCertificates",
      "outputs": [
        {
          "internalType": "uint256",
          "name": "",
          "type": "uint256"
        }
      ],
      "stateMutability": "view",
      "type": "function"
    },
    {
      "inputs": [
        {
          "internalType": "address",
          "name": "",
          "type": "address"
        }
      ],
      "name": "companyRecordCount",
      "outputs": [
        {
          "internalType": "uint256",
          "name": "",
          "type": "uint256"
        }
      ],
      "stateMutability": "view",
      "type": "function"
    },
    {
      "inputs": [
        {
          "internalType": "address",
          "name": "",
          "type": "address"
        }
      ],
      "name": "companyTotalEmissions",
      "outputs": [
        {
          "internalType": "uint256",
          "name": "",
          "type": "uint256"
        }
      ],
      "stateMutability": "view",
      "type": "function"
    },
    {
      "inputs": [
        {
          "internalType": "bytes32",
          "name": "",
          "type": "bytes32"
        }
      ],
      "name": "esgRecords",
      "outputs": [
        {
          "internalType": "string",
          "name": "companyName",
          "type": "string"
        },
        {
          "internalType": "string",
          "name": "batchId",
          "type": "string"
        },
        {
          "internalType": "uint256",
          "name": "emissions",
          "type": "uint256"
        },
        {
          "internalType": "string",
          "name": "energySource",
          "type": "string"
        },
        {
          "internalType": "uint256",
          "name": "timestamp",
          "type": "uint256"
        },
        {
          "internalType": "address",
          "name": "submitter",
          "type": "address"
        },
        {
          "internalType": "bool",
          "name": "exists",
          "type": "bool"
        },
        {
          "internalType": "uint256",
          "name": "certificateId",
          "type": "uint256"
        }
      ],
      "stateMutability": "view",
      "type": "function"
    },
    {
      "inputs": [
        {
          "internalType": "uint256",
          "name": "_certificateId",
          "type": "uint256"
        }
      ],
      "name": "getCertificate",
      "outputs": [
        {
          "internalType": "uint256",
          "name": "id",
          "type": "uint256"
        },
        {
          "internalType": "string",
          "name": "companyName",
          "type": "string"
        },
        {
          "internalType": "uint256",
          "name": "totalEmissions",
          "type": "uint256"
        },
        {
          "internalType": "uint256",
          "name": "recordCount",
          "type": "uint256"
        },
        {
          "internalType": "uint256",
          "name": "mintedAt",
          "type": "uint256"
        },
        {
          "internalType": "address",
          "name": "owner",
          "type": "address"
        },
        {
          "internalType": "string",
          "name": "achievementLevel",
          "type": "string"
        }
      ],
      "stateMutability": "view",
      "type": "function"
    },
    {
      "inputs": [
        {
          "internalType": "address",
          "name": "_company",
          "type": "address"
        }
      ],
      "name": "getCompanyCertificates",
      "outputs": [
        {
          "internalType": "uint256[]",
          "name": "",
          "type": "uint256[]"
        }
      ],
      "stateMutability": "view",
      "type": "function"
    },
    {
      "inputs": [
        {
          "internalType": "address",
          "name": "_company",
          "type": "address"
        }
      ],
      "name": "getCompanyStats",
      "outputs": [
        {
          "internalType": "uint256",
          "name": "totalEmissions",
          "type": "uint256"
        },
        {
          "internalType": "uint256",
          "name": "recordCount",
          "type": "uint256"
        }
      ],
      "stateMutability": "view",
      "type": "function"
    },
    {
      "inputs": [
        {
          "internalType": "uint256",
          "name": "_index",
          "type": "uint256"
        }
      ],
      "name": "getRecordHashByIndex",
      "outputs": [
        {
          "internalType": "bytes32",
          "name": "",
          "type": "bytes32"
        }
      ],
      "stateMutability": "view",
      "type": "function"
    },
    {
      "inputs": [],
      "name": "getTotalRecords",
      "outputs": [
        {
          "internalType": "uint256",
          "name": "",
          "type": "uint256"
        }
      ],
      "stateMutability": "view",
      "type": "function"
    },
    {
      "inputs": [
        {
          "internalType": "bytes32",
          "name": "_recordHash",
          "type": "bytes32"
        },
        {
          "internalType": "string",
          "name": "_companyName",
          "type": "string"
        }
      ],
      "name": "mintCertificate",
      "outputs": [
        {
          "internalType": "uint256",
          "name": "",
          "type": "uint256"
        }
      ],
      "stateMutability": "nonpayable",
      "type": "function"
    },
    {
      "inputs": [
        {
          "internalType": "uint256",
          "name": "",
          "type": "uint256"
        }
      ],
      "name": "recordHashes",
      "outputs": [
        {
          "internalType": "bytes32",
          "name": "",
          "type": "bytes32"
        }
      ],
      "stateMutability": "view",
      "type": "function"
    },
    {
      "inputs": [
        {
          "internalType": "string",
          "name": "_companyName",
          "type": "string"
        },
        {
          "internalType": "string",
          "name": "_batchId",
          "type": "string"
        },
        {
          "internalType": "uint256",
          "name": "_emissions",
          "type": "uint256"
        },
        {
          "internalType": "string",
          "name": "_energySource",
          "type": "string"
        }
      ],
      "name": "submitESGData",
      "outputs": [
        {
          "internalType": "bytes32",
          "name": "",
          "type": "bytes32"
        }
      ],
      "stateMutability": "nonpayable",
      "type": "function"
    },
    {
      "inputs": [
        {
          "internalType": "bytes32",
          "name": "_recordHash",
          "type": "bytes32"
        }
      ],
      "name": "verifyESGData",
      "outputs": [
        {
          "internalType": "bool",
          "name": "exists",
          "type": "bool"
        },
        {
          "internalType": "string",
          "name": "companyName",
          "type": "string"
        },
        {
          "internalType": "string",
          "name": "batchId",
          "type": "string"
        },
        {
          "internalType": "uint256",
          "name": "emissions",
          "type": "uint256"
        },
        {
          "internalType": "string",
          "name": "energySource",
          "type": "string"
        },
        {
          "internalType": "uint256",
          "name": "timestamp",
          "type": "uint256"
        },
        {
          "internalType": "address",
          "name": "submitter",
          "type": "address"
        }
      ],
      "stateMutability": "view",
      "type": "function"
    }
  ],
  "bytecode": "0x608060405234801561001057600080fd5b50612623806100206000396000f3fe608060405234801561001057600080fd5b50600436106100f55760003560e01c806367764b2611610097578063798350b811610066578063798350b8146102fb5780638666f0de1461032b5780639fce67d814610361578063c0866e2714610391576100f5565b806367764b261461024d5780636ef044331461026b578063703a9d041461029b57806376b03479146102cb576100f5565b806349cc7055116100d357806349cc70551461017957806351640fee146101a95780635acf863e146101df578063663b3e2214610216576100f5565b80630aeacb5e146100fa5780631db2c0ea14610118578063462721e414610148575b600080fd5b6101026103c1565b60405161010f9190611638565b60405180910390f35b610132600480360381019061012d91906116c5565b6103ce565b60405161013f9190611638565b60405180910390f35b610162600480360381019061015d91906116c5565b6103e6565b6040516101709291906116f2565b60405180910390f35b610193600480360381019061018e9190611747565b610472565b6040516101a0919061178d565b60405180910390f35b6101c360048036038101906101be9190611747565b6104e1565b6040516101d69796959493929190611847565b60405180910390f35b6101f960048036038101906101f491906118f0565b6106f9565b60405161020d989796959493929190611938565b60405180910390f35b610230600480360381019061022b9190611747565b610906565b6040516102449897969594939291906119cb565b60405180910390f35b610255610a7e565b6040516102629190611638565b60405180910390f35b61028560048036038101906102809190611a57565b610a84565b6040516102929190611638565b60405180910390f35b6102b560048036038101906102b09190611bcc565b610ab5565b6040516102c2919061178d565b60405180910390f35b6102e560048036038101906102e09190611747565b610da2565b6040516102f2919061178d565b60405180910390f35b61031560048036038101906103109190611c87565b610dc6565b6040516103229190611638565b60405180910390f35b610345600480360381019061034091906118f0565b6112c0565b6040516103589796959493929190611ce3565b60405180910390f35b61037b600480360381019061037691906116c5565b611570565b6040516103889190611638565b60405180910390f35b6103ab60048036038101906103a691906116c5565b611588565b6040516103b89190611e25565b60405180910390f35b6000600580549050905090565b60046020528060005260406000206000915090505481565b600080600360008473ffffffffffffffffffffffffffffffffffffffff1673ffffffffffffffffffffffffffffffffffffffff16815260200190815260200160002054600460008573ffffffffffffffffffffffffffffffffffffffff1673ffffffffffffffffffffffffffffffffffffffff1681526020019081526020016000205491509150915091565b600060058054905082106104bb576040517f08c379a00000000000000000000000000000000000000000000000000000000081526004016104b290611e93565b60405180910390fd5b600582815481106104cf576104ce611eb3565b5b90600052602060002001549050919050565b6000606060008060008060606000600160008a815260200190815260200160002060405180610100016040529081600082015481526020016001820154815260200160028201805461053290611f11565b80601f016020809104026020016040519081016040528092919081815260200182805461055e90611f11565b80156105ab5780601f10610580576101008083540402835291602001916105ab565b820191906000526020600020905b81548152906001019060200180831161058e57829003601f168201915b505050505081526020016003820154815260200160048201548152602001600582015481526020016006820160009054906101000a900473ffffffffffffffffffffffffffffffffffffffff1673ffffffffffffffffffffffffffffffffffffffff1673ffffffffffffffffffffffffffffffffffffffff16815260200160078201805461063890611f11565b80601f016020809104026020016040519081016040528092919081815260200182805461066490611f11565b80156106b15780601f10610686576101008083540402835291602001916106b1565b820191906000526020600020905b81548152906001019060200180831161069457829003601f168201915b505050505081525050905080600001518160400151826060015183608001518460a001518560c001518660e00151975097509750975097509750975050919395979092949650565b600060205280600052604060002060009150905080600001805461071c90611f11565b80601f016020809104026020016040519081016040528092919081815260200182805461074890611f11565b80156107955780601f1061076a57610100808354040283529160200191610795565b820191906000526020600020905b81548152906001019060200180831161077857829003601f168201915b5050505050908060010180546107aa90611f11565b80601f01602080910402602001604051908101604052809291908181526020018280546107d690611f11565b80156108235780601f106107f857610100808354040283529160200191610823565b820191906000526020600020905b81548152906001019060200180831161080657829003601f168201915b50505050509080600201549080600301805461083e90611f11565b80601f016020809104026020016040519081016040528092919081815260200182805461086a90611f11565b80156108b75780601f1061088c576101008083540402835291602001916108b7565b820191906000526020600020905b81548152906001019060200180831161089a57829003601f168201915b5050505050908060040154908060050160009054906101000a900473ffffffffffffffffffffffffffffffffffffffff16908060050160149054906101000a900460ff16908060060154905088565b600160205280600052604060002060009150905080600001549080600101549080600201805461093590611f11565b80601f016020809104026020016040519081016040528092919081815260200182805461096190611f11565b80156109ae5780601f10610983576101008083540402835291602001916109ae565b820191906000526020600020905b81548152906001019060200180831161099157829003601f168201915b5050505050908060030154908060040154908060050154908060060160009054906101000a900473ffffffffffffffffffffffffffffffffffffffff16908060070180546109fb90611f11565b80601f0160208091040260200160405190810160405280929190818152602001828054610a2790611f11565b8015610a745780601f10610a4957610100808354040283529160200191610a74565b820191906000526020600020905b815481529060010190602001808311610a5757829003601f168201915b5050505050905088565b60065481565b60026020528160005260406000208181548110610aa057600080fd5b90600052602060002001600091509150505481565b600080858585854233604051602001610ad396959493929190611fe7565b60405160208183030381529060405280519060200120905060008082815260200190815260200160002060050160149054906101000a900460ff1615610b4e576040517f08c379a0000000000000000000000000000000000000000000000000000000008152600401610b4590612097565b60405180910390fd5b6040518061010001604052808781526020018681526020018581526020018481526020014281526020013373ffffffffffffffffffffffffffffffffffffffff16815260200160011515815260200160008152506000808381526020019081526020016000206000820151816000019081610bc99190612263565b506020820151816001019081610bdf9190612263565b50604082015181600201556060820151816003019081610bff9190612263565b506080820151816004015560a08201518160050160006101000a81548173ffffffffffffffffffffffffffffffffffffffff021916908373ffffffffffffffffffffffffffffffffffffffff16021790555060c08201518160050160146101000a81548160ff02191690831515021790555060e08201518160060155905050600581908060018154018082558091505060019003906000526020600020016000909190919091505583600360003373ffffffffffffffffffffffffffffffffffffffff1673ffffffffffffffffffffffffffffffffffffffff1681526020019081526020016000206000828254610cf69190612364565b925050819055506001600460003373ffffffffffffffffffffffffffffffffffffffff1673ffffffffffffffffffffffffffffffffffffffff1681526020019081526020016000206000828254610d4d9190612364565b92505081905550807f7a79e29864ce9de75f247c58e2dfb297f061cb9648c6e8ff8beaf462b4734531878787874233604051610d8e96959493929190612398565b60405180910390a280915050949350505050565b60058181548110610db257600080fd5b906000526020600020016000915090505481565b600080600084815260200190815260200160002060050160149054906101000a900460ff16610e2a576040517f08c379a0000000000000000000000000000000000000000000000000000000008152600401610e219061245a565b60405180910390fd5b3373ffffffffffffffffffffffffffffffffffffffff1660008085815260200190815260200160002060050160009054906101000a900473ffffffffffffffffffffffffffffffffffffffff1673ffffffffffffffffffffffffffffffffffffffff1614610ecd576040517f08c379a0000000000000000000000000000000000000000000000000000000008152600401610ec4906124c6565b60405180910390fd5b60008060008581526020019081526020016000206006015414610f25576040517f08c379a0000000000000000000000000000000000000000000000000000000008152600401610f1c90612532565b60405180910390fd5b60066000815480929190610f3890612552565b9190505550600060065490506000600360003373ffffffffffffffffffffffffffffffffffffffff1673ffffffffffffffffffffffffffffffffffffffff1681526020019081526020016000205490506000600460003373ffffffffffffffffffffffffffffffffffffffff1673ffffffffffffffffffffffffffffffffffffffff16815260200190815260200160002054905060006040518060400160405280600681526020017f42726f6e7a65000000000000000000000000000000000000000000000000000081525090506032821061104b576040518060400160405280600881526020017f506c6174696e756d00000000000000000000000000000000000000000000000081525090506110d3565b60198210611090576040518060400160405280600481526020017f476f6c640000000000000000000000000000000000000000000000000000000081525090506110d2565b600a82106110d1576040518060400160405280600681526020017f53696c766572000000000000000000000000000000000000000000000000000081525090505b5b5b6040518061010001604052808581526020018881526020018781526020018481526020018381526020014281526020013373ffffffffffffffffffffffffffffffffffffffff16815260200182815250600160008681526020019081526020016000206000820151816000015560208201518160010155604082015181600201908161115f9190612263565b50606082015181600301556080820151816004015560a0820151816005015560c08201518160060160006101000a81548173ffffffffffffffffffffffffffffffffffffffff021916908373ffffffffffffffffffffffffffffffffffffffff16021790555060e08201518160070190816111da9190612263565b50905050600260003373ffffffffffffffffffffffffffffffffffffffff1673ffffffffffffffffffffffffffffffffffffffff16815260200190815260200160002084908060018154018082558091505060019003906000526020600020016000909190919091505583600080898152602001908152602001600020600601819055503373ffffffffffffffffffffffffffffffffffffffff16847ff63fd96e0602d6f84e816afd7eb668e0079060a2520980c4d958038a7f177fc1888487876040516112ab949392919061259a565b60405180910390a38394505050505092915050565b60006060806000606060008060008060008a8152602001908152602001600020604051806101000160405290816000820180546112fc90611f11565b80601f016020809104026020016040519081016040528092919081815260200182805461132890611f11565b80156113755780601f1061134a57610100808354040283529160200191611375565b820191906000526020600020905b81548152906001019060200180831161135857829003601f168201915b5050505050815260200160018201805461138e90611f11565b80601f01602080910402602001604051908101604052809291908181526020018280546113ba90611f11565b80156114075780601f106113dc57610100808354040283529160200191611407565b820191906000526020600020905b8154815290600101906020018083116113ea57829003601f168201915b505050505081526020016002820154815260200160038201805461142a90611f11565b80601f016020809104026020016040519081016040528092919081815260200182805461145690611f11565b80156114a35780601f10611478576101008083540402835291602001916114a3565b820191906000526020600020905b81548152906001019060200180831161148657829003601f168201915b50505050508152602001600482015481526020016005820160009054906101000a900473ffffffffffffffffffffffffffffffffffffffff1673ffffffffffffffffffffffffffffffffffffffff1673ffffffffffffffffffffffffffffffffffffffff1681526020016005820160149054906101000a900460ff1615151515815260200160068201548152505090508060c00151816000015182602001518360400151846060015185608001518660a00151975097509750975097509750975050919395979092949650565b60036020528060005260406000206000915090505481565b6060600260008373ffffffffffffffffffffffffffffffffffffffff1673ffffffffffffffffffffffffffffffffffffffff16815260200190815260200160002080548060200260200160405190810160405280929190818152602001828054801561161357602002820191906000526020600020905b8154815260200190600101908083116115ff575b50505050509050919050565b6000819050919050565b6116328161161f565b82525050565b600060208201905061164d6000830184611629565b92915050565b6000604051905090565b600080fd5b600080fd5b600073ffffffffffffffffffffffffffffffffffffffff82169050919050565b600061169282611667565b9050919050565b6116a281611687565b81146116ad57600080fd5b50565b6000813590506116bf81611699565b92915050565b6000602082840312156116db576116da61165d565b5b60006116e9848285016116b0565b91505092915050565b60006040820190506117076000830185611629565b6117146020830184611629565b9392505050565b6117248161161f565b811461172f57600080fd5b50565b6000813590506117418161171b565b92915050565b60006020828403121561175d5761175c61165d565b5b600061176b84828501611732565b91505092915050565b6000819050919050565b61178781611774565b82525050565b60006020820190506117a2600083018461177e565b92915050565b600081519050919050565b600082825260208201905092915050565b60005b838110156117e25780820151818401526020810190506117c7565b60008484015250505050565b6000601f19601f8301169050919050565b600061180a826117a8565b61181481856117b3565b93506118248185602086016117c4565b61182d816117ee565b840191505092915050565b61184181611687565b82525050565b600060e08201905061185c600083018a611629565b818103602083015261186e81896117ff565b905061187d6040830188611629565b61188a6060830187611629565b6118976080830186611629565b6118a460a0830185611838565b81810360c08301526118b681846117ff565b905098975050505050505050565b6118cd81611774565b81146118d857600080fd5b50565b6000813590506118ea816118c4565b92915050565b6000602082840312156119065761190561165d565b5b6000611914848285016118db565b91505092915050565b60008115159050919050565b6119328161191d565b82525050565b6000610100820190508181036000830152611953818b6117ff565b90508181036020830152611967818a6117ff565b90506119766040830189611629565b818103606083015261198881886117ff565b90506119976080830187611629565b6119a460a0830186611838565b6119b160c0830185611929565b6119be60e0830184611629565b9998505050505050505050565b6000610100820190506119e1600083018b611629565b6119ee602083018a61177e565b8181036040830152611a0081896117ff565b9050611a0f6060830188611629565b611a1c6080830187611629565b611a2960a0830186611629565b611a3660c0830185611838565b81810360e0830152611a4881846117ff565b90509998505050505050505050565b60008060408385031215611a6e57611a6d61165d565b5b6000611a7c858286016116b0565b9250506020611a8d85828601611732565b9150509250929050565b600080fd5b600080fd5b7f4e487b7100000000000000000000000000000000000000000000000000000000600052604160045260246000fd5b611ad9826117ee565b810181811067ffffffffffffffff82111715611af857611af7611aa1565b5b80604052505050565b6000611b0b611653565b9050611b178282611ad0565b919050565b600067ffffffffffffffff821115611b3757611b36611aa1565b5b611b40826117ee565b9050602081019050919050565b82818337600083830152505050565b6000611b6f611b6a84611b1c565b611b01565b905082815260208101848484011115611b8b57611b8a611a9c565b5b611b96848285611b4d565b509392505050565b600082601f830112611bb357611bb2611a97565b5b8135611bc3848260208601611b5c565b91505092915050565b60008060008060808587031215611be657611be561165d565b5b600085013567ffffffffffffffff811115611c0457611c03611662565b5b611c1087828801611b9e565b945050602085013567ffffffffffffffff811115611c3157611c30611662565b5b611c3d87828801611b9e565b9350506040611c4e87828801611732565b925050606085013567ffffffffffffffff811115611c6f57611c6e611662565b5b611c7b87828801611b9e565b91505092959194509250565b60008060408385031215611c9e57611c9d61165d565b5b6000611cac858286016118db565b925050602083013567ffffffffffffffff811115611ccd57611ccc611662565b5b611cd985828601611b9e565b9150509250929050565b600060e082019050611cf8600083018a611929565b8181036020830152611d0a81896117ff565b90508181036040830152611d1e81886117ff565b9050611d2d6060830187611629565b8181036080830152611d3f81866117ff565b9050611d4e60a0830185611629565b611d5b60c0830184611838565b98975050505050505050565b600081519050919050565b600082825260208201905092915050565b6000819050602082019050919050565b611d9c8161161f565b82525050565b6000611dae8383611d93565b60208301905092915050565b6000602082019050919050565b6000611dd282611d67565b611ddc8185611d72565b9350611de783611d83565b8060005b83811015611e18578151611dff8882611da2565b9750611e0a83611dba565b925050600181019050611deb565b5085935050505092915050565b60006020820190508181036000830152611e3f8184611dc7565b905092915050565b7f496e646578206f7574206f6620626f756e647300000000000000000000000000600082015250565b6000611e7d6013836117b3565b9150611e8882611e47565b602082019050919050565b60006020820190508181036000830152611eac81611e70565b9050919050565b7f4e487b7100000000000000000000000000000000000000000000000000000000600052603260045260246000fd5b7f4e487b7100000000000000000000000000000000000000000000000000000000600052602260045260246000fd5b60006002820490506001821680611f2957607f821691505b602082108103611f3c57611f3b611ee2565b5b50919050565b600081905092915050565b6000611f58826117a8565b611f628185611f42565b9350611f728185602086016117c4565b80840191505092915050565b6000819050919050565b611f99611f948261161f565b611f7e565b82525050565b60008160601b9050919050565b6000611fb782611f9f565b9050919050565b6000611fc982611fac565b9050919050565b611fe1611fdc82611687565b611fbe565b82525050565b6000611ff38289611f4d565b9150611fff8288611f4d565b915061200b8287611f88565b60208201915061201b8286611f4d565b91506120278285611f88565b6020820191506120378284611fd0565b601482019150819050979650505050505050565b7f5265636f726420616c7265616479206578697374730000000000000000000000600082015250565b60006120816015836117b3565b915061208c8261204b565b602082019050919050565b600060208201905081810360008301526120b081612074565b9050919050565b60008190508160005260206000209050919050565b60006020601f8301049050919050565b600082821b905092915050565b6000600883026121197fffffffffffffffffffffffffffffffffffffffffffffffffffffffffffffffff826120dc565b61212386836120dc565b95508019841693508086168417925050509392505050565b6000819050919050565b600061216061215b6121568461161f565b61213b565b61161f565b9050919050565b6000819050919050565b61217a83612145565b61218e61218682612167565b8484546120e9565b825550505050565b600090565b6121a3612196565b6121ae818484612171565b505050565b5b818110156121d2576121c760008261219b565b6001810190506121b4565b5050565b601f821115612217576121e8816120b7565b6121f1846120cc565b81016020851015612200578190505b61221461220c856120cc565b8301826121b3565b50505b505050565b600082821c905092915050565b600061223a6000198460080261221c565b1980831691505092915050565b60006122538383612229565b9150826002028217905092915050565b61226c826117a8565b67ffffffffffffffff81111561228557612284611aa1565b5b61228f8254611f11565b61229a8282856121d6565b600060209050601f8311600181146122cd57600084156122bb578287015190505b6122c58582612247565b86555061232d565b601f1984166122db866120b7565b60005b82811015612303578489015182556001820191506020850194506020810190506122de565b86831015612320578489015161231c601f891682612229565b8355505b6001600288020188555050505b505050505050565b7f4e487b7100000000000000000000000000000000000000000000000000000000600052601160045260246000fd5b600061236f8261161f565b915061237a8361161f565b925082820190508082111561239257612391612335565b5b92915050565b600060c08201905081810360008301526123b281896117ff565b905081810360208301526123c681886117ff565b90506123d56040830187611629565b81810360608301526123e781866117ff565b90506123f66080830185611629565b61240360a0830184611838565b979650505050505050565b7f5265636f726420646f6573206e6f742065786973740000000000000000000000600082015250565b60006124446015836117b3565b915061244f8261240e565b602082019050919050565b6000602082019050818103600083015261247381612437565b9050919050565b7f4e6f74207265636f7264206f776e657200000000000000000000000000000000600082015250565b60006124b06010836117b3565b91506124bb8261247a565b602082019050919050565b600060208201905081810360008301526124df816124a3565b9050919050565b7f436572746966696361746520616c7265616479206d696e746564000000000000600082015250565b600061251c601a836117b3565b9150612527826124e6565b602082019050919050565b6000602082019050818103600083015261254b8161250f565b9050919050565b600061255d8261161f565b91507fffffffffffffffffffffffffffffffffffffffffffffffffffffffffffffffff820361258f5761258e612335565b5b600182019050919050565b600060808201905081810360008301526125b481876117ff565b905081810360208301526125c881866117ff565b90506125d76040830185611629565b6125e46060830184611629565b9594505050505056fea2646970667358221220a212f9d6f81be966e5080d138464636998653143b0fc900f4aae98f4e6e04c5064736f6c63430008130033",
  "linkReferences": {},
  "deployedLinkReferences": {}
}